{
  "abi": [
    {
      "type": "constructor",
      "inputs": [
        {
          "name": "initialOwner",
          "type": "address",
          "internalType": "address"
        }
      ],
      "stateMutability": "nonpayable"
    },
    {
      "type": "function",
      "name": "CLOCK_MODE",
      "inputs": [],
      "outputs": [
        {
          "name": "",
          "type": "string",
          "internalType": "string"
        }
      ],
      "stateMutability": "view"
    },
    {
      "type": "function",
      "name": "DOMAIN_SEPARATOR",
      "inputs": [],
      "outputs": [
        {
          "name": "",
          "type": "bytes32",
          "internalType": "bytes32"
        }
      ],
      "stateMutability": "view"
    },
    {
      "type": "function",
      "name": "allowance",
      "inputs": [
        {
          "name": "owner",
          "type": "address",
          "internalType": "address"
        },
        {
          "name": "spender",
          "type": "address",
          "internalType": "address"
        }
      ],
      "outputs": [
        {
          "name": "",
          "type": "uint256",
          "internalType": "uint256"
        }
      ],
      "stateMutability": "view"
    },
    {
      "type": "function",
      "name": "approve",
      "inputs": [
        {
          "name": "spender",
          "type": "address",
          "internalType": "address"
        },
        {
          "name": "value",
          "type": "uint256",
          "internalType": "uint256"
        }
      ],
      "outputs": [
        {
          "name": "",
          "type": "bool",
          "internalType": "bool"
        }
      ],
      "stateMutability": "nonpayable"
    },
    {
      "type": "function",
      "name": "balanceOf",
      "inputs": [
        {
          "name": "account",
          "type": "address",
          "internalType": "address"
        }
      ],
      "outputs": [
        {
          "name": "",
          "type": "uint256",
          "internalType": "uint256"
        }
      ],
      "stateMutability": "view"
    },
    {
      "type": "function",
      "name": "checkpoints",
      "inputs": [
        {
          "name": "account",
          "type": "address",
          "internalType": "address"
        },
        {
          "name": "pos",
          "type": "uint32",
          "internalType": "uint32"
        }
      ],
      "outputs": [
        {
          "name": "",
          "type": "tuple",
          "internalType": "struct Checkpoints.Checkpoint208",
          "components": [
            {
              "name": "_key",
              "type": "uint48",
              "internalType": "uint48"
            },
            {
              "name": "_value",
              "type": "uint208",
              "internalType": "uint208"
            }
          ]
        }
      ],
      "stateMutability": "view"
    },
    {
      "type": "function",
      "name": "clock",
      "inputs": [],
      "outputs": [
        {
          "name": "",
          "type": "uint48",
          "internalType": "uint48"
        }
      ],
      "stateMutability": "view"
    },
    {
      "type": "function",
      "name": "decimals",
      "inputs": [],
      "outputs": [
        {
          "name": "",
          "type": "uint8",
          "internalType": "uint8"
        }
      ],
      "stateMutability": "view"
    },
    {
      "type": "function",
      "name": "delegate",
      "inputs": [
        {
          "name": "delegatee",
          "type": "address",
          "internalType": "address"
        }
      ],
      "outputs": [],
      "stateMutability": "nonpayable"
    },
    {
      "type": "function",
      "name": "delegateBySig",
      "inputs": [
        {
          "name": "delegatee",
          "type": "address",
          "internalType": "address"
        },
        {
          "name": "nonce",
          "type": "uint256",
          "internalType": "uint256"
        },
        {
          "name": "expiry",
          "type": "uint256",
          "internalType": "uint256"
        },
        {
          "name": "v",
          "type": "uint8",
          "internalType": "uint8"
        },
        {
          "name": "r",
          "type": "bytes32",
          "internalType": "bytes32"
        },
        {
          "name": "s",
          "type": "bytes32",
          "internalType": "bytes32"
        }
      ],
      "outputs": [],
      "stateMutability": "nonpayable"
    },
    {
      "type": "function",
      "name": "delegates",
      "inputs": [
        {
          "name": "account",
          "type": "address",
          "internalType": "address"
        }
      ],
      "outputs": [
        {
          "name": "",
          "type": "address",
          "internalType": "address"
        }
      ],
      "stateMutability": "view"
    },
    {
      "type": "function",
      "name": "eip712Domain",
      "inputs": [],
      "outputs": [
        {
          "name": "fields",
          "type": "bytes1",
          "internalType": "bytes1"
        },
        {
          "name": "name",
          "type": "string",
          "internalType": "string"
        },
        {
          "name": "version",
          "type": "string",
          "internalType": "string"
        },
        {
          "name": "chainId",
          "type": "uint256",
          "internalType": "uint256"
        },
        {
          "name": "verifyingContract",
          "type": "address",
          "internalType": "address"
        },
        {
          "name": "salt",
          "type": "bytes32",
          "internalType": "bytes32"
        },
        {
          "name": "extensions",
          "type": "uint256[]",
          "internalType": "uint256[]"
        }
      ],
      "stateMutability": "view"
    },
    {
      "type": "function",
      "name": "getPastTotalSupply",
      "inputs": [
        {
          "name": "timepoint",
          "type": "uint256",
          "internalType": "uint256"
        }
      ],
      "outputs": [
        {
          "name": "",
          "type": "uint256",
          "internalType": "uint256"
        }
      ],
      "stateMutability": "view"
    },
    {
      "type": "function",
      "name": "getPastVotes",
      "inputs": [
        {
          "name": "account",
          "type": "address",
          "internalType": "address"
        },
        {
          "name": "timepoint",
          "type": "uint256",
          "internalType": "uint256"
        }
      ],
      "outputs": [
        {
          "name": "",
          "type": "uint256",
          "internalType": "uint256"
        }
      ],
      "stateMutability": "view"
    },
    {
      "type": "function",
      "name": "getVotes",
      "inputs": [
        {
          "name": "account",
          "type": "address",
          "internalType": "address"
        }
      ],
      "outputs": [
        {
          "name": "",
          "type": "uint256",
          "internalType": "uint256"
        }
      ],
      "stateMutability": "view"
    },
    {
      "type": "function",
      "name": "name",
      "inputs": [],
      "outputs": [
        {
          "name": "",
          "type": "string",
          "internalType": "string"
        }
      ],
      "stateMutability": "view"
    },
    {
      "type": "function",
      "name": "nonces",
      "inputs": [
        {
          "name": "owner",
          "type": "address",
          "internalType": "address"
        }
      ],
      "outputs": [
        {
          "name": "",
          "type": "uint256",
          "internalType": "uint256"
        }
      ],
      "stateMutability": "view"
    },
    {
      "type": "function",
      "name": "numCheckpoints",
      "inputs": [
        {
          "name": "account",
          "type": "address",
          "internalType": "address"
        }
      ],
      "outputs": [
        {
          "name": "",
          "type": "uint32",
          "internalType": "uint32"
        }
      ],
      "stateMutability": "view"
    },
    {
      "type": "function",
      "name": "owner",
      "inputs": [],
      "outputs": [
        {
          "name": "",
          "type": "address",
          "internalType": "address"
        }
      ],
      "stateMutability": "view"
    },
    {
      "type": "function",
      "name": "permit",
      "inputs": [
        {
          "name": "owner",
          "type": "address",
          "internalType": "address"
        },
        {
          "name": "spender",
          "type": "address",
          "internalType": "address"
        },
        {
          "name": "value",
          "type": "uint256",
          "internalType": "uint256"
        },
        {
          "name": "deadline",
          "type": "uint256",
          "internalType": "uint256"
        },
        {
          "name": "v",
          "type": "uint8",
          "internalType": "uint8"
        },
        {
          "name": "r",
          "type": "bytes32",
          "internalType": "bytes32"
        },
        {
          "name": "s",
          "type": "bytes32",
          "internalType": "bytes32"
        }
      ],
      "outputs": [],
      "stateMutability": "nonpayable"
    },
    {
      "type": "function",
      "name": "renounceOwnership",
      "inputs": [],
      "outputs": [],
      "stateMutability": "nonpayable"
    },
    {
      "type": "function",
      "name": "symbol",
      "inputs": [],
      "outputs": [
        {
          "name": "",
          "type": "string",
          "internalType": "string"
        }
      ],
      "stateMutability": "view"
    },
    {
      "type": "function",
      "name": "totalSupply",
      "inputs": [],
      "outputs": [
        {
          "name": "",
          "type": "uint256",
          "internalType": "uint256"
        }
      ],
      "stateMutability": "view"
    },
    {
      "type": "function",
      "name": "transfer",
      "inputs": [
        {
          "name": "to",
          "type": "address",
          "internalType": "address"
        },
        {
          "name": "value",
          "type": "uint256",
          "internalType": "uint256"
        }
      ],
      "outputs": [
        {
          "name": "",
          "type": "bool",
          "internalType": "bool"
        }
      ],
      "stateMutability": "nonpayable"
    },
    {
      "type": "function",
      "name": "transferFrom",
      "inputs": [
        {
          "name": "from",
          "type": "address",
          "internalType": "address"
        },
        {
          "name": "to",
          "type": "address",
          "internalType": "address"
        },
        {
          "name": "value",
          "type": "uint256",
          "internalType": "uint256"
        }
      ],
      "outputs": [
        {
          "name": "",
          "type": "bool",
          "internalType": "bool"
        }
      ],
      "stateMutability": "nonpayable"
    },
    {
      "type": "function",
      "name": "transferOwnership",
      "inputs": [
        {
          "name": "newOwner",
          "type": "address",
          "internalType": "address"
        }
      ],
      "outputs": [],
      "stateMutability": "nonpayable"
    },
    {
      "type": "event",
      "name": "Approval",
      "inputs": [
        {
          "name": "owner",
          "type": "address",
          "indexed": true,
          "internalType": "address"
        },
        {
          "name": "spender",
          "type": "address",
          "indexed": true,
          "internalType": "address"
        },
        {
          "name": "value",
          "type": "uint256",
          "indexed": false,
          "internalType": "uint256"
        }
      ],
      "anonymous": false
    },
    {
      "type": "event",
      "name": "DelegateChanged",
      "inputs": [
        {
          "name": "delegator",
          "type": "address",
          "indexed": true,
          "internalType": "address"
        },
        {
          "name": "fromDelegate",
          "type": "address",
          "indexed": true,
          "internalType": "address"
        },
        {
          "name": "toDelegate",
          "type": "address",
          "indexed": true,
          "internalType": "address"
        }
      ],
      "anonymous": false
    },
    {
      "type": "event",
      "name": "DelegateVotesChanged",
      "inputs": [
        {
          "name": "delegate",
          "type": "address",
          "indexed": true,
          "internalType": "address"
        },
        {
          "name": "previousVotes",
          "type": "uint256",
          "indexed": false,
          "internalType": "uint256"
        },
        {
          "name": "newVotes",
          "type": "uint256",
          "indexed": false,
          "internalType": "uint256"
        }
      ],
      "anonymous": false
    },
    {
      "type": "event",
      "name": "EIP712DomainChanged",
      "inputs": [],
      "anonymous": false
    },
    {
      "type": "event",
      "name": "OwnershipTransferred",
      "inputs": [
        {
          "name": "previousOwner",
          "type": "address",
          "indexed": true,
          "internalType": "address"
        },
        {
          "name": "newOwner",
          "type": "address",
          "indexed": true,
          "internalType": "address"
        }
      ],
      "anonymous": false
    },
    {
      "type": "event",
      "name": "Transfer",
      "inputs": [
        {
          "name": "from",
          "type": "address",
          "indexed": true,
          "internalType": "address"
        },
        {
          "name": "to",
          "type": "address",
          "indexed": true,
          "internalType": "address"
        },
        {
          "name": "value",
          "type": "uint256",
          "indexed": false,
          "internalType": "uint256"
        }
      ],
      "anonymous": false
    },
    {
      "type": "error",
      "name": "CheckpointUnorderedInsertion",
      "inputs": []
    },
    {
      "type": "error",
      "name": "ECDSAInvalidSignature",
      "inputs": []
    },
    {
      "type": "error",
      "name": "ECDSAInvalidSignatureLength",
      "inputs": [
        {
          "name": "length",
          "type": "uint256",
          "internalType": "uint256"
        }
      ]
    },
    {
      "type": "error",
      "name": "ECDSAInvalidSignatureS",
      "inputs": [
        {
          "name": "s",
          "type": "bytes32",
          "internalType": "bytes32"
        }
      ]
    },
    {
      "type": "error",
      "name": "ERC20ExceededSafeSupply",
      "inputs": [
        {
          "name": "increasedSupply",
          "type": "uint256",
          "internalType": "uint256"
        },
        {
          "name": "cap",
          "type": "uint256",
          "internalType": "uint256"
        }
      ]
    },
    {
      "type": "error",
      "name": "ERC20InsufficientAllowance",
      "inputs": [
        {
          "name": "spender",
          "type": "address",
          "internalType": "address"
        },
        {
          "name": "allowance",
          "type": "uint256",
          "internalType": "uint256"
        },
        {
          "name": "needed",
          "type": "uint256",
          "internalType": "uint256"
        }
      ]
    },
    {
      "type": "error",
      "name": "ERC20InsufficientBalance",
      "inputs": [
        {
          "name": "sender",
          "type": "address",
          "internalType": "address"
        },
        {
          "name": "balance",
          "type": "uint256",
          "internalType": "uint256"
        },
        {
          "name": "needed",
          "type": "uint256",
          "internalType": "uint256"
        }
      ]
    },
    {
      "type": "error",
      "name": "ERC20InvalidApprover",
      "inputs": [
        {
          "name": "approver",
          "type": "address",
          "internalType": "address"
        }
      ]
    },
    {
      "type": "error",
      "name": "ERC20InvalidReceiver",
      "inputs": [
        {
          "name": "receiver",
          "type": "address",
          "internalType": "address"
        }
      ]
    },
    {
      "type": "error",
      "name": "ERC20InvalidSender",
      "inputs": [
        {
          "name": "sender",
          "type": "address",
          "internalType": "address"
        }
      ]
    },
    {
      "type": "error",
      "name": "ERC20InvalidSpender",
      "inputs": [
        {
          "name": "spender",
          "type": "address",
          "internalType": "address"
        }
      ]
    },
    {
      "type": "error",
      "name": "ERC2612ExpiredSignature",
      "inputs": [
        {
          "name": "deadline",
          "type": "uint256",
          "internalType": "uint256"
        }
      ]
    },
    {
      "type": "error",
      "name": "ERC2612InvalidSigner",
      "inputs": [
        {
          "name": "signer",
          "type": "address",
          "internalType": "address"
        },
        {
          "name": "owner",
          "type": "address",
          "internalType": "address"
        }
      ]
    },
    {
      "type": "error",
      "name": "ERC5805FutureLookup",
      "inputs": [
        {
          "name": "timepoint",
          "type": "uint256",
          "internalType": "uint256"
        },
        {
          "name": "clock",
          "type": "uint48",
          "internalType": "uint48"
        }
      ]
    },
    {
      "type": "error",
      "name": "ERC6372InconsistentClock",
      "inputs": []
    },
    {
      "type": "error",
      "name": "InvalidAccountNonce",
      "inputs": [
        {
          "name": "account",
          "type": "address",
          "internalType": "address"
        },
        {
          "name": "currentNonce",
          "type": "uint256",
          "internalType": "uint256"
        }
      ]
    },
    {
      "type": "error",
      "name": "InvalidShortString",
      "inputs": []
    },
    {
      "type": "error",
      "name": "OwnableInvalidOwner",
      "inputs": [
        {
          "name": "owner",
          "type": "address",
          "internalType": "address"
        }
      ]
    },
    {
      "type": "error",
      "name": "OwnableUnauthorizedAccount",
      "inputs": [
        {
          "name": "account",
          "type": "address",
          "internalType": "address"
        }
      ]
    },
    {
      "type": "error",
      "name": "SafeCastOverflowedUintDowncast",
      "inputs": [
        {
          "name": "bits",
          "type": "uint8",
          "internalType": "uint8"
        },
        {
          "name": "value",
          "type": "uint256",
          "internalType": "uint256"
        }
      ]
    },
    {
      "type": "error",
      "name": "StringTooLong",
      "inputs": [
        {
          "name": "str",
          "type": "string",
          "internalType": "string"
        }
      ]
    },
    {
      "type": "error",
      "name": "VotesExpiredSignature",
      "inputs": [
        {
          "name": "expiry",
          "type": "uint256",
          "internalType": "uint256"
        }
      ]
    }
  ],
  "bytecode": {
    "object": "0x61016060405234801561001157600080fd5b50604051612c7c380380612c7c8339810160408190526100309161090f565b8060405180604001604052806005815260200164047726173760dc1b81525080604051806040016040528060018152602001603160f81b81525060405180604001604052806005815260200164047726173760dc1b81525060405180604001604052806005815260200164047524153560dc1b81525081600390816100b591906109d8565b5060046100c282826109d8565b506100d2915083905060056101db565b610120526100e18160066101db565b61014052815160208084019190912060e052815190820120610100524660a05261016e60e05161010051604080517f8b73c3c69bb8fe3d512ecc4cf759cc79239f7b179b0ffacaa9a75d522b39400f60208201529081019290925260608201524660808201523060a082015260009060c00160405160208183030381529060405280519060200120905090565b60805250503060c052506001600160a01b0381166101a757604051631e4fbdf760e01b8152600060048201526024015b60405180910390fd5b6101b08161020e565b506101d5336101c16012600a610b91565b6101d0906461c9f36800610ba0565b610260565b50610c97565b60006020835110156101f7576101f08361029a565b9050610208565b8161020284826109d8565b5060ff90505b92915050565b600b80546001600160a01b038381166001600160a01b0319831681179093556040519116919082907f8be0079c531659141344cd1fd0a4f28419497f9722a3daafe3b4186f6b6457e090600090a35050565b6001600160a01b03821661028a5760405163ec442f0560e01b81526000600482015260240161019e565b610296600083836102d8565b5050565b600080829050601f815111156102c5578260405163305a27a960e01b815260040161019e9190610bb7565b80516102d082610c06565b179392505050565b6102e38383836102e8565b505050565b6102f383838361034f565b6001600160a01b03831661034457600061030c60025490565b90506001600160d01b038082111561034157604051630e58ae9360e11b8152600481018390526024810182905260440161019e565b50505b6102e3838383610479565b6001600160a01b03831661037a57806002600082825461036f9190610c2a565b909155506103ec9050565b6001600160a01b038316600090815260208190526040902054818110156103cd5760405163391434e360e21b81526001600160a01b0385166004820152602481018290526044810183905260640161019e565b6001600160a01b03841660009081526020819052604090209082900390555b6001600160a01b03821661040857600280548290039055610427565b6001600160a01b03821660009081526020819052604090208054820190555b816001600160a01b0316836001600160a01b03167fddf252ad1be2c89b69c2b068fc378daa952ba7f163c4a11628f55a4df523b3ef8360405161046c91815260200190565b60405180910390a3505050565b6001600160a01b0383166104a7576104a4600a6109a461050260201b1761049f84610515565b61054d565b50505b6001600160a01b0382166104d0576104cd600a6109b061058360201b1761049f84610515565b50505b6001600160a01b038381166000908152600860205260408082205485841683529120546102e39291821691168361058f565b600061050e8284610c3d565b9392505050565b60006001600160d01b03821115610549576040516306dfcc6560e41b815260d060048201526024810183905260440161019e565b5090565b60008061057661055b6106e4565b61056e610567886106f3565b868860201c565b87919061073d565b915091505b935093915050565b600061050e8284610c64565b816001600160a01b0316836001600160a01b0316141580156105b15750600081115b156102e3576001600160a01b0383161561064b576001600160a01b0383166000908152600960209081526040822082916105f89190610583901b6109b01761049f86610515565b6001600160d01b031691506001600160d01b03169150846001600160a01b0316600080516020612c5c8339815191528383604051610640929190918252602082015260400190565b60405180910390a250505b6001600160a01b038216156102e3576001600160a01b03821660009081526009602090815260408220829161068d9190610502901b6109a41761049f86610515565b6001600160d01b031691506001600160d01b03169150836001600160a01b0316600080516020612c5c83398151915283836040516106d5929190918252602082015260400190565b60405180910390a25050505050565b60006106ee61074b565b905090565b805460009080156107345761071b8361070d600184610c84565b600091825260209091200190565b54660100000000000090046001600160d01b031661050e565b60009392505050565b600080610576858585610756565b60006106ee436108dc565b82546000908190801561087e5760006107748761070d600185610c84565b60408051808201909152905465ffffffffffff80821680845266010000000000009092046001600160d01b0316602084015291925090871610156107cb57604051632520601d60e01b815260040160405180910390fd5b805165ffffffffffff80881691160361081a57846107ee8861070d600186610c84565b80546001600160d01b039290921666010000000000000265ffffffffffff90921691909117905561086e565b6040805180820190915265ffffffffffff80881682526001600160d01b0380881660208085019182528b54600181018d5560008d815291909120945191519092166601000000000000029216919091179101555b60200151925083915061057b9050565b50506040805180820190915265ffffffffffff80851682526001600160d01b0380851660208085019182528854600181018a5560008a815291822095519251909316660100000000000002919093161792019190915590508161057b565b600065ffffffffffff821115610549576040516306dfcc6560e41b8152603060048201526024810183905260440161019e565b60006020828403121561092157600080fd5b81516001600160a01b038116811461050e57600080fd5b634e487b7160e01b600052604160045260246000fd5b600181811c9082168061096257607f821691505b60208210810361098257634e487b7160e01b600052602260045260246000fd5b50919050565b601f8211156102e3576000816000526020600020601f850160051c810160208610156109b15750805b601f850160051c820191505b818110156109d0578281556001016109bd565b505050505050565b81516001600160401b038111156109f1576109f1610938565b610a05816109ff845461094e565b84610988565b602080601f831160018114610a3a5760008415610a225750858301515b600019600386901b1c1916600185901b1785556109d0565b600085815260208120601f198616915b82811015610a6957888601518255948401946001909101908401610a4a565b5085821015610a875787850151600019600388901b60f8161c191681555b5050505050600190811b01905550565b634e487b7160e01b600052601160045260246000fd5b600181815b80851115610ae8578160001904821115610ace57610ace610a97565b80851615610adb57918102915b93841c9390800290610ab2565b509250929050565b600082610aff57506001610208565b81610b0c57506000610208565b8160018114610b225760028114610b2c57610b48565b6001915050610208565b60ff841115610b3d57610b3d610a97565b50506001821b610208565b5060208310610133831016604e8410600b8410161715610b6b575081810a610208565b610b758383610aad565b8060001904821115610b8957610b89610a97565b029392505050565b600061050e60ff841683610af0565b808202811582820484141761020857610208610a97565b60006020808352835180602085015260005b81811015610be557858101830151858201604001528201610bc9565b506000604082860101526040601f19601f8301168501019250505092915050565b805160208083015191908110156109825760001960209190910360031b1b16919050565b8082018082111561020857610208610a97565b6001600160d01b03818116838216019080821115610c5d57610c5d610a97565b5092915050565b6001600160d01b03828116828216039080821115610c5d57610c5d610a97565b8181038181111561020857610208610a97565b60805160a05160c05160e051610100516101205161014051611f6b610cf16000396000610e3301526000610e0601526000610b8501526000610b5d01526000610ab801526000610ae201526000610b0c0152611f6b6000f3fe608060405234801561001057600080fd5b506004361061018e5760003560e01c80637ecebe00116100de5780639ab24eb011610097578063d505accf11610071578063d505accf1461038f578063dd62ed3e146103a2578063f1127ed8146103db578063f2fde38b1461041a57600080fd5b80639ab24eb014610356578063a9059cbb14610369578063c3cda5201461037c57600080fd5b80637ecebe00146102dd57806384b0196e146102f05780638da5cb5b1461030b5780638e539e8c1461031c57806391ddadf41461032f57806395d89b411461034e57600080fd5b80633a46b1a81161014b5780635c19a95c116101255780635c19a95c1461026f5780636fcfff451461028457806370a08231146102ac578063715018a6146102d557600080fd5b80633a46b1a8146102105780634bf5d7e914610223578063587cde1e1461022b57600080fd5b806306fdde0314610193578063095ea7b3146101b157806318160ddd146101d457806323b872dd146101e6578063313ce567146101f95780633644e51514610208575b600080fd5b61019b61042d565b6040516101a89190611b6c565b60405180910390f35b6101c46101bf366004611b9b565b6104bf565b60405190151581526020016101a8565b6002545b6040519081526020016101a8565b6101c46101f4366004611bc5565b6104d9565b604051601281526020016101a8565b6101d86104fd565b6101d861021e366004611b9b565b61050c565b61019b610592565b610257610239366004611c01565b6001600160a01b039081166000908152600860205260409020541690565b6040516001600160a01b0390911681526020016101a8565b61028261027d366004611c01565b61060a565b005b610297610292366004611c01565b610619565b60405163ffffffff90911681526020016101a8565b6101d86102ba366004611c01565b6001600160a01b031660009081526020819052604090205490565b610282610624565b6101d86102eb366004611c01565b610638565b6102f8610643565b6040516101a89796959493929190611c1c565b600b546001600160a01b0316610257565b6101d861032a366004611cb5565b610689565b6103376106f3565b60405165ffffffffffff90911681526020016101a8565b61019b6106fd565b6101d8610364366004611c01565b61070c565b6101c4610377366004611b9b565b61073c565b61028261038a366004611cdf565b61074a565b61028261039d366004611d37565b610807565b6101d86103b0366004611da1565b6001600160a01b03918216600090815260016020908152604080832093909416825291909152205490565b6103ee6103e9366004611dd4565b610941565b60408051825165ffffffffffff1681526020928301516001600160d01b031692810192909252016101a8565b610282610428366004611c01565b610966565b60606003805461043c90611e14565b80601f016020809104026020016040519081016040528092919081815260200182805461046890611e14565b80156104b55780601f1061048a576101008083540402835291602001916104b5565b820191906000526020600020905b81548152906001019060200180831161049857829003601f168201915b5050505050905090565b6000336104cd8185856109bc565b60019150505b92915050565b6000336104e78582856109ce565b6104f2858585610a4c565b506001949350505050565b6000610507610aab565b905090565b6000806105176106f3565b90508065ffffffffffff16831061055757604051637669fc0f60e11b81526004810184905265ffffffffffff821660248201526044015b60405180910390fd5b61058161056384610bd6565b6001600160a01b038616600090815260096020526040902090610c0d565b6001600160d01b0316949350505050565b606061059c610cc3565b65ffffffffffff166105ac6106f3565b65ffffffffffff16146105d2576040516301bfc1c560e61b815260040160405180910390fd5b5060408051808201909152601d81527f6d6f64653d626c6f636b6e756d6265722666726f6d3d64656661756c74000000602082015290565b336106158183610cce565b5050565b60006104d382610d40565b61062c610d62565b6106366000610d8f565b565b60006104d382610de1565b600060608060008060006060610657610dff565b61065f610e2c565b60408051600080825260208201909252600f60f81b9b939a50919850469750309650945092509050565b6000806106946106f3565b90508065ffffffffffff1683106106cf57604051637669fc0f60e11b81526004810184905265ffffffffffff8216602482015260440161054e565b6106e36106db84610bd6565b600a90610c0d565b6001600160d01b03169392505050565b6000610507610cc3565b60606004805461043c90611e14565b6001600160a01b038116600090815260096020526040812061072d90610e59565b6001600160d01b031692915050565b6000336104cd818585610a4c565b8342111561076e57604051632341d78760e11b81526004810185905260240161054e565b604080517fe48329057bfd03d55e49b547132e39cffd9c1820ad7b9d4c5307691425d15adf60208201526001600160a01b0388169181019190915260608101869052608081018590526000906107e8906107e09060a00160405160208183030381529060405280519060200120610e92565b858585610ebf565b90506107f48187610eed565b6107fe8188610cce565b50505050505050565b8342111561082b5760405163313c898160e11b81526004810185905260240161054e565b60007f6e71edae12b1b97f4d1f60370fef10105fa2faae0126114a169c64845d6126c98888886108788c6001600160a01b0316600090815260076020526040902080546001810190915590565b6040805160208101969096526001600160a01b0394851690860152929091166060840152608083015260a082015260c0810186905260e00160405160208183030381529060405280519060200120905060006108d382610e92565b905060006108e382878787610ebf565b9050896001600160a01b0316816001600160a01b03161461092a576040516325c0072360e11b81526001600160a01b0380831660048301528b16602482015260440161054e565b6109358a8a8a6109bc565b50505050505050505050565b604080518082019091526000808252602082015261095f8383610f40565b9392505050565b61096e610d62565b6001600160a01b03811661099857604051631e4fbdf760e01b81526000600482015260240161054e565b6109a181610d8f565b50565b600061095f8284611e64565b600061095f8284611e8b565b6109c98383836001610f76565b505050565b6001600160a01b038381166000908152600160209081526040808320938616835292905220546000198114610a465781811015610a3757604051637dc7a0d960e11b81526001600160a01b0384166004820152602481018290526044810183905260640161054e565b610a4684848484036000610f76565b50505050565b6001600160a01b038316610a7657604051634b637e8f60e11b81526000600482015260240161054e565b6001600160a01b038216610aa05760405163ec442f0560e01b81526000600482015260240161054e565b6109c983838361104b565b6000306001600160a01b037f000000000000000000000000000000000000000000000000000000000000000016148015610b0457507f000000000000000000000000000000000000000000000000000000000000000046145b15610b2e57507f000000000000000000000000000000000000000000000000000000000000000090565b610507604080517f8b73c3c69bb8fe3d512ecc4cf759cc79239f7b179b0ffacaa9a75d522b39400f60208201527f0000000000000000000000000000000000000000000000000000000000000000918101919091527f000000000000000000000000000000000000000000000000000000000000000060608201524660808201523060a082015260009060c00160405160208183030381529060405280519060200120905090565b600065ffffffffffff821115610c09576040516306dfcc6560e41b8152603060048201526024810183905260440161054e565b5090565b815460009081816005811115610c6c576000610c2884611056565b610c329085611eab565b60008881526020902090915081015465ffffffffffff9081169087161015610c5c57809150610c6a565b610c67816001611ebe565b92505b505b6000610c7a8787858561113e565b90508015610cb557610c9f87610c91600184611eab565b600091825260209091200190565b54600160301b90046001600160d01b0316610cb8565b60005b979650505050505050565b600061050743610bd6565b6001600160a01b0382811660008181526008602052604080822080548686166001600160a01b0319821681179092559151919094169392849290917f3134e8a2e6d97e929a7e54011ea5485d7d196dd5f0ba4d4ef95803e8e3fc257f9190a46109c98183610d3b866111a0565b6111be565b6001600160a01b0381166000908152600960205260408120546104d39061132a565b600b546001600160a01b031633146106365760405163118cdaa760e01b815233600482015260240161054e565b600b80546001600160a01b038381166001600160a01b0319831681179093556040519116919082907f8be0079c531659141344cd1fd0a4f28419497f9722a3daafe3b4186f6b6457e090600090a35050565b6001600160a01b0381166000908152600760205260408120546104d3565b60606105077f0000000000000000000000000000000000000000000000000000000000000000600561135b565b60606105077f0000000000000000000000000000000000000000000000000000000000000000600661135b565b80546000908015610e8957610e7383610c91600184611eab565b54600160301b90046001600160d01b031661095f565b60009392505050565b60006104d3610e9f610aab565b8360405161190160f01b8152600281019290925260228201526042902090565b600080600080610ed188888888611406565b925092509250610ee182826114d5565b50909695505050505050565b6001600160a01b03821660009081526007602052604090208054600181019091558181146109c9576040516301d4b62360e61b81526001600160a01b03841660048201526024810182905260440161054e565b60408051808201909152600080825260208201526001600160a01b038316600090815260096020526040902061095f908361158e565b6001600160a01b038416610fa05760405163e602df0560e01b81526000600482015260240161054e565b6001600160a01b038316610fca57604051634a1406b160e11b81526000600482015260240161054e565b6001600160a01b0380851660009081526001602090815260408083209387168352929052208290558015610a4657826001600160a01b0316846001600160a01b03167f8c5be1e5ebec7d5bd14f71427d1e84f3dd0314c0f7b2291e5b200ac8c7c3b9258460405161103d91815260200190565b60405180910390a350505050565b6109c98383836115fe565b60008160000361106857506000919050565b6000600161107584611665565b901c6001901b9050600181848161108e5761108e611ed1565b048201901c905060018184816110a6576110a6611ed1565b048201901c905060018184816110be576110be611ed1565b048201901c905060018184816110d6576110d6611ed1565b048201901c905060018184816110ee576110ee611ed1565b048201901c9050600181848161110657611106611ed1565b048201901c9050600181848161111e5761111e611ed1565b048201901c905061095f8182858161113857611138611ed1565b046116f9565b60005b81831015611198576000611155848461170f565b60008781526020902090915065ffffffffffff86169082015465ffffffffffff16111561118457809250611192565b61118f816001611ebe565b93505b50611141565b509392505050565b6001600160a01b0381166000908152602081905260408120546104d3565b816001600160a01b0316836001600160a01b0316141580156111e05750600081115b156109c9576001600160a01b03831615611288576001600160a01b03831660009081526009602052604081208190611223906109b061121e8661172a565b61175e565b6001600160d01b031691506001600160d01b03169150846001600160a01b03167fdec2bacdd2f05b59de34da9b523dff8be42e5e38e818c82fdb0bae774387a724838360405161127d929190918252602082015260400190565b60405180910390a250505b6001600160a01b038216156109c9576001600160a01b038216600090815260096020526040812081906112c1906109a461121e8661172a565b6001600160d01b031691506001600160d01b03169150836001600160a01b03167fdec2bacdd2f05b59de34da9b523dff8be42e5e38e818c82fdb0bae774387a724838360405161131b929190918252602082015260400190565b60405180910390a25050505050565b600063ffffffff821115610c09576040516306dfcc6560e41b8152602060048201526024810183905260440161054e565b606060ff83146113755761136e83611797565b90506104d3565b81805461138190611e14565b80601f01602080910402602001604051908101604052809291908181526020018280546113ad90611e14565b80156113fa5780601f106113cf576101008083540402835291602001916113fa565b820191906000526020600020905b8154815290600101906020018083116113dd57829003601f168201915b505050505090506104d3565b600080807f7fffffffffffffffffffffffffffffff5d576e7357a4501ddfe92f46681b20a084111561144157506000915060039050826114cb565b604080516000808252602082018084528a905260ff891692820192909252606081018790526080810186905260019060a0016020604051602081039080840390855afa158015611495573d6000803e3d6000fd5b5050604051601f1901519150506001600160a01b0381166114c1575060009250600191508290506114cb565b9250600091508190505b9450945094915050565b60008260038111156114e9576114e9611ee7565b036114f2575050565b600182600381111561150657611506611ee7565b036115245760405163f645eedf60e01b815260040160405180910390fd5b600282600381111561153857611538611ee7565b036115595760405163fce698f760e01b81526004810182905260240161054e565b600382600381111561156d5761156d611ee7565b03610615576040516335e2f38360e21b81526004810182905260240161054e565b6040805180820190915260008082526020820152826000018263ffffffff16815481106115bd576115bd611efd565b60009182526020918290206040805180820190915291015465ffffffffffff81168252600160301b90046001600160d01b0316918101919091529392505050565b6116098383836117d6565b6001600160a01b03831661165a57600061162260025490565b90506001600160d01b038082111561165757604051630e58ae9360e11b8152600481018390526024810182905260440161054e565b50505b6109c9838383611900565b600080608083901c1561167a57608092831c92015b604083901c1561168c57604092831c92015b602083901c1561169e57602092831c92015b601083901c156116b057601092831c92015b600883901c156116c257600892831c92015b600483901c156116d457600492831c92015b600283901c156116e657600292831c92015b600183901c156104d35760010192915050565b6000818310611708578161095f565b5090919050565b600061171e6002848418611f13565b61095f90848416611ebe565b60006001600160d01b03821115610c09576040516306dfcc6560e41b815260d060048201526024810183905260440161054e565b60008061178a61176c6106f3565b61178261177888610e59565b868863ffffffff16565b879190611976565b915091505b935093915050565b606060006117a483611984565b604080516020808252818301909252919250600091906020820181803683375050509182525060208101929092525090565b6001600160a01b0383166118015780600260008282546117f69190611ebe565b909155506118739050565b6001600160a01b038316600090815260208190526040902054818110156118545760405163391434e360e21b81526001600160a01b0385166004820152602481018290526044810183905260640161054e565b6001600160a01b03841660009081526020819052604090209082900390555b6001600160a01b03821661188f576002805482900390556118ae565b6001600160a01b03821660009081526020819052604090208054820190555b816001600160a01b0316836001600160a01b03167fddf252ad1be2c89b69c2b068fc378daa952ba7f163c4a11628f55a4df523b3ef836040516118f391815260200190565b60405180910390a3505050565b6001600160a01b0383166119225761191f600a6109a461121e8461172a565b50505b6001600160a01b03821661194457611941600a6109b061121e8461172a565b50505b6001600160a01b038381166000908152600860205260408082205485841683529120546109c9929182169116836111be565b60008061178a8585856119ac565b600060ff8216601f8111156104d357604051632cd44ac360e21b815260040160405180910390fd5b825460009081908015611acb5760006119ca87610c91600185611eab565b60408051808201909152905465ffffffffffff808216808452600160301b9092046001600160d01b031660208401529192509087161015611a1e57604051632520601d60e01b815260040160405180910390fd5b805165ffffffffffff808816911603611a6a5784611a4188610c91600186611eab565b80546001600160d01b0392909216600160301b0265ffffffffffff909216919091179055611abb565b6040805180820190915265ffffffffffff80881682526001600160d01b0380881660208085019182528b54600181018d5560008d81529190912094519151909216600160301b029216919091179101555b60200151925083915061178f9050565b50506040805180820190915265ffffffffffff80851682526001600160d01b0380851660208085019182528854600181018a5560008a815291822095519251909316600160301b02919093161792019190915590508161178f565b6000815180845260005b81811015611b4c57602081850181015186830182015201611b30565b506000602082860101526020601f19601f83011685010191505092915050565b60208152600061095f6020830184611b26565b80356001600160a01b0381168114611b9657600080fd5b919050565b60008060408385031215611bae57600080fd5b611bb783611b7f565b946020939093013593505050565b600080600060608486031215611bda57600080fd5b611be384611b7f565b9250611bf160208501611b7f565b9150604084013590509250925092565b600060208284031215611c1357600080fd5b61095f82611b7f565b60ff60f81b881681526000602060e06020840152611c3d60e084018a611b26565b8381036040850152611c4f818a611b26565b606085018990526001600160a01b038816608086015260a0850187905284810360c08601528551808252602080880193509091019060005b81811015611ca357835183529284019291840191600101611c87565b50909c9b505050505050505050505050565b600060208284031215611cc757600080fd5b5035919050565b803560ff81168114611b9657600080fd5b60008060008060008060c08789031215611cf857600080fd5b611d0187611b7f565b95506020870135945060408701359350611d1d60608801611cce565b92506080870135915060a087013590509295509295509295565b600080600080600080600060e0888a031215611d5257600080fd5b611d5b88611b7f565b9650611d6960208901611b7f565b95506040880135945060608801359350611d8560808901611cce565b925060a0880135915060c0880135905092959891949750929550565b60008060408385031215611db457600080fd5b611dbd83611b7f565b9150611dcb60208401611b7f565b90509250929050565b60008060408385031215611de757600080fd5b611df083611b7f565b9150602083013563ffffffff81168114611e0957600080fd5b809150509250929050565b600181811c90821680611e2857607f821691505b602082108103611e4857634e487b7160e01b600052602260045260246000fd5b50919050565b634e487b7160e01b600052601160045260246000fd5b6001600160d01b03818116838216019080821115611e8457611e84611e4e565b5092915050565b6001600160d01b03828116828216039080821115611e8457611e84611e4e565b818103818111156104d3576104d3611e4e565b808201808211156104d3576104d3611e4e565b634e487b7160e01b600052601260045260246000fd5b634e487b7160e01b600052602160045260246000fd5b634e487b7160e01b600052603260045260246000fd5b600082611f3057634e487b7160e01b600052601260045260246000fd5b50049056fea2646970667358221220591233f9a1db763ca6988866659af1317aba1e303219dc99f02cf052c765332d64736f6c63430008190033dec2bacdd2f05b59de34da9b523dff8be42e5e38e818c82fdb0bae774387a724",
    "linkReferences": {}
  },
  "methodIdentifiers": {
    "CLOCK_MODE()": "4bf5d7e9",
    "DOMAIN_SEPARATOR()": "3644e515",
    "allowance(address,address)": "dd62ed3e",
    "approve(address,uint256)": "095ea7b3",
    "balanceOf(address)": "70a08231",
    "checkpoints(address,uint32)": "f1127ed8",
    "clock()": "91ddadf4",
    "decimals()": "313ce567",
    "delegate(address)": "5c19a95c",
    "delegateBySig(address,uint256,uint256,uint8,bytes32,bytes32)": "c3cda520",
    "delegates(address)": "587cde1e",
    "eip712Domain()": "84b0196e",
    "getPastTotalSupply(uint256)": "8e539e8c",
    "getPastVotes(address,uint256)": "3a46b1a8",
    "getVotes(address)": "9ab24eb0",
    "name()": "06fdde03",
    "nonces(address)": "7ecebe00",
    "numCheckpoints(address)": "6fcfff45",
    "owner()": "8da5cb5b",
    "permit(address,address,uint256,uint256,uint8,bytes32,bytes32)": "d505accf",
    "renounceOwnership()": "715018a6",
    "symbol()": "95d89b41",
    "totalSupply()": "18160ddd",
    "transfer(address,uint256)": "a9059cbb",
    "transferFrom(address,address,uint256)": "23b872dd",
    "transferOwnership(address)": "f2fde38b"
  },
  "id": 64
}