{
  "abi": [
    {
      "type": "constructor",
      "inputs": [
        {
          "name": "initialOwner",
          "type": "address",
          "internalType": "address"
        }
      ],
      "stateMutability": "nonpayable"
    },
    {
      "type": "function",
      "name": "CLOCK_MODE",
      "inputs": [],
      "outputs": [
        {
          "name": "",
          "type": "string",
          "internalType": "string"
        }
      ],
      "stateMutability": "view"
    },
    {
      "type": "function",
      "name": "approve",
      "inputs": [
        {
          "name": "to",
          "type": "address",
          "internalType": "address"
        },
        {
          "name": "tokenId",
          "type": "uint256",
          "internalType": "uint256"
        }
      ],
      "outputs": [],
      "stateMutability": "nonpayable"
    },
    {
      "type": "function",
      "name": "balanceOf",
      "inputs": [
        {
          "name": "owner",
          "type": "address",
          "internalType": "address"
        }
      ],
      "outputs": [
        {
          "name": "",
          "type": "uint256",
          "internalType": "uint256"
        }
      ],
      "stateMutability": "view"
    },
    {
      "type": "function",
      "name": "clock",
      "inputs": [],
      "outputs": [
        {
          "name": "",
          "type": "uint48",
          "internalType": "uint48"
        }
      ],
      "stateMutability": "view"
    },
    {
      "type": "function",
      "name": "delegate",
      "inputs": [
        {
          "name": "delegatee",
          "type": "address",
          "internalType": "address"
        }
      ],
      "outputs": [],
      "stateMutability": "nonpayable"
    },
    {
      "type": "function",
      "name": "delegateBySig",
      "inputs": [
        {
          "name": "delegatee",
          "type": "address",
          "internalType": "address"
        },
        {
          "name": "nonce",
          "type": "uint256",
          "internalType": "uint256"
        },
        {
          "name": "expiry",
          "type": "uint256",
          "internalType": "uint256"
        },
        {
          "name": "v",
          "type": "uint8",
          "internalType": "uint8"
        },
        {
          "name": "r",
          "type": "bytes32",
          "internalType": "bytes32"
        },
        {
          "name": "s",
          "type": "bytes32",
          "internalType": "bytes32"
        }
      ],
      "outputs": [],
      "stateMutability": "nonpayable"
    },
    {
      "type": "function",
      "name": "delegates",
      "inputs": [
        {
          "name": "account",
          "type": "address",
          "internalType": "address"
        }
      ],
      "outputs": [
        {
          "name": "",
          "type": "address",
          "internalType": "address"
        }
      ],
      "stateMutability": "view"
    },
    {
      "type": "function",
      "name": "eip712Domain",
      "inputs": [],
      "outputs": [
        {
          "name": "fields",
          "type": "bytes1",
          "internalType": "bytes1"
        },
        {
          "name": "name",
          "type": "string",
          "internalType": "string"
        },
        {
          "name": "version",
          "type": "string",
          "internalType": "string"
        },
        {
          "name": "chainId",
          "type": "uint256",
          "internalType": "uint256"
        },
        {
          "name": "verifyingContract",
          "type": "address",
          "internalType": "address"
        },
        {
          "name": "salt",
          "type": "bytes32",
          "internalType": "bytes32"
        },
        {
          "name": "extensions",
          "type": "uint256[]",
          "internalType": "uint256[]"
        }
      ],
      "stateMutability": "view"
    },
    {
      "type": "function",
      "name": "getApproved",
      "inputs": [
        {
          "name": "tokenId",
          "type": "uint256",
          "internalType": "uint256"
        }
      ],
      "outputs": [
        {
          "name": "",
          "type": "address",
          "internalType": "address"
        }
      ],
      "stateMutability": "view"
    },
    {
      "type": "function",
      "name": "getPastTotalSupply",
      "inputs": [
        {
          "name": "timepoint",
          "type": "uint256",
          "internalType": "uint256"
        }
      ],
      "outputs": [
        {
          "name": "",
          "type": "uint256",
          "internalType": "uint256"
        }
      ],
      "stateMutability": "view"
    },
    {
      "type": "function",
      "name": "getPastVotes",
      "inputs": [
        {
          "name": "account",
          "type": "address",
          "internalType": "address"
        },
        {
          "name": "timepoint",
          "type": "uint256",
          "internalType": "uint256"
        }
      ],
      "outputs": [
        {
          "name": "",
          "type": "uint256",
          "internalType": "uint256"
        }
      ],
      "stateMutability": "view"
    },
    {
      "type": "function",
      "name": "getVotes",
      "inputs": [
        {
          "name": "account",
          "type": "address",
          "internalType": "address"
        }
      ],
      "outputs": [
        {
          "name": "",
          "type": "uint256",
          "internalType": "uint256"
        }
      ],
      "stateMutability": "view"
    },
    {
      "type": "function",
      "name": "isApprovedForAll",
      "inputs": [
        {
          "name": "owner",
          "type": "address",
          "internalType": "address"
        },
        {
          "name": "operator",
          "type": "address",
          "internalType": "address"
        }
      ],
      "outputs": [
        {
          "name": "",
          "type": "bool",
          "internalType": "bool"
        }
      ],
      "stateMutability": "view"
    },
    {
      "type": "function",
      "name": "name",
      "inputs": [],
      "outputs": [
        {
          "name": "",
          "type": "string",
          "internalType": "string"
        }
      ],
      "stateMutability": "view"
    },
    {
      "type": "function",
      "name": "nonces",
      "inputs": [
        {
          "name": "owner",
          "type": "address",
          "internalType": "address"
        }
      ],
      "outputs": [
        {
          "name": "",
          "type": "uint256",
          "internalType": "uint256"
        }
      ],
      "stateMutability": "view"
    },
    {
      "type": "function",
      "name": "owner",
      "inputs": [],
      "outputs": [
        {
          "name": "",
          "type": "address",
          "internalType": "address"
        }
      ],
      "stateMutability": "view"
    },
    {
      "type": "function",
      "name": "ownerOf",
      "inputs": [
        {
          "name": "tokenId",
          "type": "uint256",
          "internalType": "uint256"
        }
      ],
      "outputs": [
        {
          "name": "",
          "type": "address",
          "internalType": "address"
        }
      ],
      "stateMutability": "view"
    },
    {
      "type": "function",
      "name": "renounceOwnership",
      "inputs": [],
      "outputs": [],
      "stateMutability": "nonpayable"
    },
    {
      "type": "function",
      "name": "safeMint",
      "inputs": [
        {
          "name": "to",
          "type": "address",
          "internalType": "address"
        },
        {
          "name": "uri",
          "type": "string",
          "internalType": "string"
        }
      ],
      "outputs": [],
      "stateMutability": "nonpayable"
    },
    {
      "type": "function",
      "name": "safeTransferFrom",
      "inputs": [
        {
          "name": "from",
          "type": "address",
          "internalType": "address"
        },
        {
          "name": "to",
          "type": "address",
          "internalType": "address"
        },
        {
          "name": "tokenId",
          "type": "uint256",
          "internalType": "uint256"
        }
      ],
      "outputs": [],
      "stateMutability": "nonpayable"
    },
    {
      "type": "function",
      "name": "safeTransferFrom",
      "inputs": [
        {
          "name": "from",
          "type": "address",
          "internalType": "address"
        },
        {
          "name": "to",
          "type": "address",
          "internalType": "address"
        },
        {
          "name": "tokenId",
          "type": "uint256",
          "internalType": "uint256"
        },
        {
          "name": "data",
          "type": "bytes",
          "internalType": "bytes"
        }
      ],
      "outputs": [],
      "stateMutability": "nonpayable"
    },
    {
      "type": "function",
      "name": "setApprovalForAll",
      "inputs": [
        {
          "name": "operator",
          "type": "address",
          "internalType": "address"
        },
        {
          "name": "approved",
          "type": "bool",
          "internalType": "bool"
        }
      ],
      "outputs": [],
      "stateMutability": "nonpayable"
    },
    {
      "type": "function",
      "name": "supportsInterface",
      "inputs": [
        {
          "name": "interfaceId",
          "type": "bytes4",
          "internalType": "bytes4"
        }
      ],
      "outputs": [
        {
          "name": "",
          "type": "bool",
          "internalType": "bool"
        }
      ],
      "stateMutability": "view"
    },
    {
      "type": "function",
      "name": "symbol",
      "inputs": [],
      "outputs": [
        {
          "name": "",
          "type": "string",
          "internalType": "string"
        }
      ],
      "stateMutability": "view"
    },
    {
      "type": "function",
      "name": "tokenURI",
      "inputs": [
        {
          "name": "tokenId",
          "type": "uint256",
          "internalType": "uint256"
        }
      ],
      "outputs": [
        {
          "name": "",
          "type": "string",
          "internalType": "string"
        }
      ],
      "stateMutability": "view"
    },
    {
      "type": "function",
      "name": "transferFrom",
      "inputs": [
        {
          "name": "from",
          "type": "address",
          "internalType": "address"
        },
        {
          "name": "to",
          "type": "address",
          "internalType": "address"
        },
        {
          "name": "tokenId",
          "type": "uint256",
          "internalType": "uint256"
        }
      ],
      "outputs": [],
      "stateMutability": "nonpayable"
    },
    {
      "type": "function",
      "name": "transferOwnership",
      "inputs": [
        {
          "name": "newOwner",
          "type": "address",
          "internalType": "address"
        }
      ],
      "outputs": [],
      "stateMutability": "nonpayable"
    },
    {
      "type": "event",
      "name": "Approval",
      "inputs": [
        {
          "name": "owner",
          "type": "address",
          "indexed": true,
          "internalType": "address"
        },
        {
          "name": "approved",
          "type": "address",
          "indexed": true,
          "internalType": "address"
        },
        {
          "name": "tokenId",
          "type": "uint256",
          "indexed": true,
          "internalType": "uint256"
        }
      ],
      "anonymous": false
    },
    {
      "type": "event",
      "name": "ApprovalForAll",
      "inputs": [
        {
          "name": "owner",
          "type": "address",
          "indexed": true,
          "internalType": "address"
        },
        {
          "name": "operator",
          "type": "address",
          "indexed": true,
          "internalType": "address"
        },
        {
          "name": "approved",
          "type": "bool",
          "indexed": false,
          "internalType": "bool"
        }
      ],
      "anonymous": false
    },
    {
      "type": "event",
      "name": "BatchMetadataUpdate",
      "inputs": [
        {
          "name": "_fromTokenId",
          "type": "uint256",
          "indexed": false,
          "internalType": "uint256"
        },
        {
          "name": "_toTokenId",
          "type": "uint256",
          "indexed": false,
          "internalType": "uint256"
        }
      ],
      "anonymous": false
    },
    {
      "type": "event",
      "name": "DelegateChanged",
      "inputs": [
        {
          "name": "delegator",
          "type": "address",
          "indexed": true,
          "internalType": "address"
        },
        {
          "name": "fromDelegate",
          "type": "address",
          "indexed": true,
          "internalType": "address"
        },
        {
          "name": "toDelegate",
          "type": "address",
          "indexed": true,
          "internalType": "address"
        }
      ],
      "anonymous": false
    },
    {
      "type": "event",
      "name": "DelegateVotesChanged",
      "inputs": [
        {
          "name": "delegate",
          "type": "address",
          "indexed": true,
          "internalType": "address"
        },
        {
          "name": "previousVotes",
          "type": "uint256",
          "indexed": false,
          "internalType": "uint256"
        },
        {
          "name": "newVotes",
          "type": "uint256",
          "indexed": false,
          "internalType": "uint256"
        }
      ],
      "anonymous": false
    },
    {
      "type": "event",
      "name": "EIP712DomainChanged",
      "inputs": [],
      "anonymous": false
    },
    {
      "type": "event",
      "name": "MetadataUpdate",
      "inputs": [
        {
          "name": "_tokenId",
          "type": "uint256",
          "indexed": false,
          "internalType": "uint256"
        }
      ],
      "anonymous": false
    },
    {
      "type": "event",
      "name": "OwnershipTransferred",
      "inputs": [
        {
          "name": "previousOwner",
          "type": "address",
          "indexed": true,
          "internalType": "address"
        },
        {
          "name": "newOwner",
          "type": "address",
          "indexed": true,
          "internalType": "address"
        }
      ],
      "anonymous": false
    },
    {
      "type": "event",
      "name": "Transfer",
      "inputs": [
        {
          "name": "from",
          "type": "address",
          "indexed": true,
          "internalType": "address"
        },
        {
          "name": "to",
          "type": "address",
          "indexed": true,
          "internalType": "address"
        },
        {
          "name": "tokenId",
          "type": "uint256",
          "indexed": true,
          "internalType": "uint256"
        }
      ],
      "anonymous": false
    },
    {
      "type": "error",
      "name": "CheckpointUnorderedInsertion",
      "inputs": []
    },
    {
      "type": "error",
      "name": "ECDSAInvalidSignature",
      "inputs": []
    },
    {
      "type": "error",
      "name": "ECDSAInvalidSignatureLength",
      "inputs": [
        {
          "name": "length",
          "type": "uint256",
          "internalType": "uint256"
        }
      ]
    },
    {
      "type": "error",
      "name": "ECDSAInvalidSignatureS",
      "inputs": [
        {
          "name": "s",
          "type": "bytes32",
          "internalType": "bytes32"
        }
      ]
    },
    {
      "type": "error",
      "name": "ERC5805FutureLookup",
      "inputs": [
        {
          "name": "timepoint",
          "type": "uint256",
          "internalType": "uint256"
        },
        {
          "name": "clock",
          "type": "uint48",
          "internalType": "uint48"
        }
      ]
    },
    {
      "type": "error",
      "name": "ERC6372InconsistentClock",
      "inputs": []
    },
    {
      "type": "error",
      "name": "ERC721IncorrectOwner",
      "inputs": [
        {
          "name": "sender",
          "type": "address",
          "internalType": "address"
        },
        {
          "name": "tokenId",
          "type": "uint256",
          "internalType": "uint256"
        },
        {
          "name": "owner",
          "type": "address",
          "internalType": "address"
        }
      ]
    },
    {
      "type": "error",
      "name": "ERC721InsufficientApproval",
      "inputs": [
        {
          "name": "operator",
          "type": "address",
          "internalType": "address"
        },
        {
          "name": "tokenId",
          "type": "uint256",
          "internalType": "uint256"
        }
      ]
    },
    {
      "type": "error",
      "name": "ERC721InvalidApprover",
      "inputs": [
        {
          "name": "approver",
          "type": "address",
          "internalType": "address"
        }
      ]
    },
    {
      "type": "error",
      "name": "ERC721InvalidOperator",
      "inputs": [
        {
          "name": "operator",
          "type": "address",
          "internalType": "address"
        }
      ]
    },
    {
      "type": "error",
      "name": "ERC721InvalidOwner",
      "inputs": [
        {
          "name": "owner",
          "type": "address",
          "internalType": "address"
        }
      ]
    },
    {
      "type": "error",
      "name": "ERC721InvalidReceiver",
      "inputs": [
        {
          "name": "receiver",
          "type": "address",
          "internalType": "address"
        }
      ]
    },
    {
      "type": "error",
      "name": "ERC721InvalidSender",
      "inputs": [
        {
          "name": "sender",
          "type": "address",
          "internalType": "address"
        }
      ]
    },
    {
      "type": "error",
      "name": "ERC721NonexistentToken",
      "inputs": [
        {
          "name": "tokenId",
          "type": "uint256",
          "internalType": "uint256"
        }
      ]
    },
    {
      "type": "error",
      "name": "InvalidAccountNonce",
      "inputs": [
        {
          "name": "account",
          "type": "address",
          "internalType": "address"
        },
        {
          "name": "currentNonce",
          "type": "uint256",
          "internalType": "uint256"
        }
      ]
    },
    {
      "type": "error",
      "name": "InvalidShortString",
      "inputs": []
    },
    {
      "type": "error",
      "name": "OwnableInvalidOwner",
      "inputs": [
        {
          "name": "owner",
          "type": "address",
          "internalType": "address"
        }
      ]
    },
    {
      "type": "error",
      "name": "OwnableUnauthorizedAccount",
      "inputs": [
        {
          "name": "account",
          "type": "address",
          "internalType": "address"
        }
      ]
    },
    {
      "type": "error",
      "name": "SafeCastOverflowedUintDowncast",
      "inputs": [
        {
          "name": "bits",
          "type": "uint8",
          "internalType": "uint8"
        },
        {
          "name": "value",
          "type": "uint256",
          "internalType": "uint256"
        }
      ]
    },
    {
      "type": "error",
      "name": "StringTooLong",
      "inputs": [
        {
          "name": "str",
          "type": "string",
          "internalType": "string"
        }
      ]
    },
    {
      "type": "error",
      "name": "VotesExpiredSignature",
      "inputs": [
        {
          "name": "expiry",
          "type": "uint256",
          "internalType": "uint256"
        }
      ]
    }
  ],
  "bytecode": {
    "object": "0x61016060405234801561001157600080fd5b50604051612bb9380380612bb98339810160408190526100309161027f565b6040518060400160405280600881526020016711dc985cdc13919560c21b815250604051806040016040528060018152602001603160f81b815250826040518060400160405280600881526020016711dc985cdc13919560c21b8152506040518060400160405280600881526020016711dc985cdc13919560c21b81525081600090816100bd9190610350565b5060016100ca8282610350565b5050506001600160a01b0381166100fc57604051631e4fbdf760e01b8152600060048201526024015b60405180910390fd5b610105816101bc565b5061011182600861020e565b6101205261012081600961020e565b61014052815160208084019190912060e052815190820120610100524660a0526101ad60e05161010051604080517f8b73c3c69bb8fe3d512ecc4cf759cc79239f7b179b0ffacaa9a75d522b39400f60208201529081019290925260608201524660808201523060a082015260009060c00160405160208183030381529060405280519060200120905090565b60805250503060c05250610482565b600780546001600160a01b038381166001600160a01b0319831681179093556040519116919082907f8be0079c531659141344cd1fd0a4f28419497f9722a3daafe3b4186f6b6457e090600090a35050565b600060208351101561022a5761022383610241565b905061023b565b816102358482610350565b5060ff90505b92915050565b600080829050601f8151111561026c578260405163305a27a960e01b81526004016100f3919061040f565b80516102778261045e565b179392505050565b60006020828403121561029157600080fd5b81516001600160a01b03811681146102a857600080fd5b9392505050565b634e487b7160e01b600052604160045260246000fd5b600181811c908216806102d957607f821691505b6020821081036102f957634e487b7160e01b600052602260045260246000fd5b50919050565b601f82111561034b576000816000526020600020601f850160051c810160208610156103285750805b601f850160051c820191505b8181101561034757828155600101610334565b5050505b505050565b81516001600160401b03811115610369576103696102af565b61037d8161037784546102c5565b846102ff565b602080601f8311600181146103b2576000841561039a5750858301515b600019600386901b1c1916600185901b178555610347565b600085815260208120601f198616915b828110156103e1578886015182559484019460019091019084016103c2565b50858210156103ff5787850151600019600388901b60f8161c191681555b5050505050600190811b01905550565b60006020808352835180602085015260005b8181101561043d57858101830151858201604001528201610421565b506000604082860101526040601f19601f8301168501019250505092915050565b805160208083015191908110156102f95760001960209190910360031b1b16919050565b60805160a05160c05160e0516101005161012051610140516126dd6104dc6000396000610c2801526000610bfb01526000611629015260006116010152600061155c01526000611586015260006115b001526126dd6000f3fe608060405234801561001057600080fd5b50600436106101a95760003560e01c80637ecebe00116100f9578063a22cb46511610097578063c87b56dd11610071578063c87b56dd146103c2578063d204c45e146103d5578063e985e9c5146103e8578063f2fde38b146103fb57600080fd5b8063a22cb46514610389578063b88d4fde1461039c578063c3cda520146103af57600080fd5b80638e539e8c116100d35780638e539e8c1461033c57806391ddadf41461034f57806395d89b411461036e5780639ab24eb01461037657600080fd5b80637ecebe00146102e757806384b0196e146103105780638da5cb5b1461032b57600080fd5b806342842e0e116101665780635c19a95c116101405780635c19a95c146102a65780636352211e146102b957806370a08231146102cc578063715018a6146102df57600080fd5b806342842e0e1461025f5780634bf5d7e914610272578063587cde1e1461027a57600080fd5b806301ffc9a7146101ae57806306fdde03146101d6578063081812fc146101eb578063095ea7b31461021657806323b872dd1461022b5780633a46b1a81461023e575b600080fd5b6101c16101bc366004611fe2565b61040e565b60405190151581526020015b60405180910390f35b6101de61041f565b6040516101cd919061204f565b6101fe6101f9366004612062565b6104b1565b6040516001600160a01b0390911681526020016101cd565b610229610224366004612097565b6104da565b005b6102296102393660046120c1565b6104e9565b61025161024c366004612097565b610579565b6040519081526020016101cd565b61022961026d3660046120c1565b6105fa565b6101de61061a565b6101fe6102883660046120fd565b6001600160a01b039081166000908152600b60205260409020541690565b6102296102b43660046120fd565b610692565b6101fe6102c7366004612062565b61069d565b6102516102da3660046120fd565b6106a8565b6102296106f0565b6102516102f53660046120fd565b6001600160a01b03166000908152600a602052604090205490565b610318610704565b6040516101cd9796959493929190612118565b6007546001600160a01b03166101fe565b61025161034a366004612062565b61074a565b6103576107b4565b60405165ffffffffffff90911681526020016101cd565b6101de6107c3565b6102516103843660046120fd565b6107d2565b6102296103973660046121b1565b610802565b6102296103aa366004612279565b61080d565b6102296103bd3660046122f5565b610824565b6101de6103d0366004612062565b6108e1565b6102296103e3366004612355565b6108ec565b6101c16103f63660046123b7565b61091f565b6102296104093660046120fd565b61094d565b60006104198261098b565b92915050565b60606000805461042e906123ea565b80601f016020809104026020016040519081016040528092919081815260200182805461045a906123ea565b80156104a75780601f1061047c576101008083540402835291602001916104a7565b820191906000526020600020905b81548152906001019060200180831161048a57829003601f168201915b5050505050905090565b60006104bc826109b0565b506000828152600460205260409020546001600160a01b0316610419565b6104e58282336109e9565b5050565b6001600160a01b03821661051857604051633250574960e11b8152600060048201526024015b60405180910390fd5b60006105258383336109f6565b9050836001600160a01b0316816001600160a01b031614610573576040516364283d7b60e01b81526001600160a01b038086166004830152602482018490528216604482015260640161050f565b50505050565b6000806105846107b4565b90508065ffffffffffff1683106105bf57604051637669fc0f60e11b81526004810184905265ffffffffffff8216602482015260440161050f565b6105e96105cb84610a0b565b6001600160a01b0386166000908152600c6020526040902090610a42565b6001600160d01b0316949350505050565b6106158383836040518060200160405280600081525061080d565b505050565b6060610624610af8565b65ffffffffffff166106346107b4565b65ffffffffffff161461065a576040516301bfc1c560e61b815260040160405180910390fd5b5060408051808201909152601d81527f6d6f64653d626c6f636b6e756d6265722666726f6d3d64656661756c74000000602082015290565b336104e58183610b03565b6000610419826109b0565b60006001600160a01b0382166106d4576040516322718ad960e21b81526000600482015260240161050f565b506001600160a01b031660009081526003602052604090205490565b6106f8610b75565b6107026000610ba2565b565b600060608060008060006060610718610bf4565b610720610c21565b60408051600080825260208201909252600f60f81b9b939a50919850469750309650945092509050565b6000806107556107b4565b90508065ffffffffffff16831061079057604051637669fc0f60e11b81526004810184905265ffffffffffff8216602482015260440161050f565b6107a461079c84610a0b565b600d90610a42565b6001600160d01b03169392505050565b60006107be610af8565b905090565b60606001805461042e906123ea565b6001600160a01b0381166000908152600c602052604081206107f390610c4e565b6001600160d01b031692915050565b6104e5338383610c88565b6108188484846104e9565b61057384848484610d27565b8342111561084857604051632341d78760e11b81526004810185905260240161050f565b604080517fe48329057bfd03d55e49b547132e39cffd9c1820ad7b9d4c5307691425d15adf60208201526001600160a01b0388169181019190915260608101869052608081018590526000906108c2906108ba9060a00160405160208183030381529060405280519060200120610e50565b858585610e7d565b90506108ce8187610eab565b6108d88188610b03565b50505050505050565b606061041982610efe565b6108f4610b75565b600e8054600091826109058361243a565b9190505590506109158382611007565b6106158183611021565b6001600160a01b03918216600090815260056020908152604080832093909416825291909152205460ff1690565b610955610b75565b6001600160a01b03811661097f57604051631e4fbdf760e01b81526000600482015260240161050f565b61098881610ba2565b50565b60006001600160e01b03198216632483248360e11b1480610419575061041982611071565b6000818152600260205260408120546001600160a01b03168061041957604051637e27328960e01b81526004810184905260240161050f565b61061583838360016110c1565b6000610a038484846111c7565b949350505050565b600065ffffffffffff821115610a3e576040516306dfcc6560e41b8152603060048201526024810183905260440161050f565b5090565b815460009081816005811115610aa1576000610a5d846111e3565b610a679085612453565b60008881526020902090915081015465ffffffffffff9081169087161015610a9157809150610a9f565b610a9c816001612466565b92505b505b6000610aaf878785856112cb565b90508015610aea57610ad487610ac6600184612453565b600091825260209091200190565b54600160301b90046001600160d01b0316610aed565b60005b979650505050505050565b60006107be43610a0b565b6001600160a01b038281166000818152600b602052604080822080548686166001600160a01b0319821681179092559151919094169392849290917f3134e8a2e6d97e929a7e54011ea5485d7d196dd5f0ba4d4ef95803e8e3fc257f9190a46106158183610b708661132d565b611338565b6007546001600160a01b031633146107025760405163118cdaa760e01b815233600482015260240161050f565b600780546001600160a01b038381166001600160a01b0319831681179093556040519116919082907f8be0079c531659141344cd1fd0a4f28419497f9722a3daafe3b4186f6b6457e090600090a35050565b60606107be7f000000000000000000000000000000000000000000000000000000000000000060086114a4565b60606107be7f000000000000000000000000000000000000000000000000000000000000000060096114a4565b80546000908015610c7e57610c6883610ac6600184612453565b54600160301b90046001600160d01b0316610c81565b60005b9392505050565b6001600160a01b038216610cba57604051630b61174360e31b81526001600160a01b038316600482015260240161050f565b6001600160a01b03838116600081815260056020908152604080832094871680845294825291829020805460ff191686151590811790915591519182527f17307eab39ab6107e8899845ad3d59bd9653f200f220920489ca2b5937696c31910160405180910390a3505050565b6001600160a01b0383163b1561057357604051630a85bd0160e11b81526001600160a01b0384169063150b7a0290610d69903390889087908790600401612479565b6020604051808303816000875af1925050508015610da4575060408051601f3d908101601f19168201909252610da1918101906124b6565b60015b610e0d573d808015610dd2576040519150601f19603f3d011682016040523d82523d6000602084013e610dd7565b606091505b508051600003610e0557604051633250574960e11b81526001600160a01b038516600482015260240161050f565b805181602001fd5b6001600160e01b03198116630a85bd0160e11b14610e4957604051633250574960e11b81526001600160a01b038516600482015260240161050f565b5050505050565b6000610419610e5d61154f565b8360405161190160f01b8152600281019290925260228201526042902090565b600080600080610e8f8888888861167a565b925092509250610e9f8282611749565b50909695505050505050565b6001600160a01b0382166000908152600a60205260409020805460018101909155818114610615576040516301d4b62360e61b81526001600160a01b03841660048201526024810182905260440161050f565b6060610f09826109b0565b5060008281526006602052604081208054610f23906123ea565b80601f0160208091040260200160405190810160405280929190818152602001828054610f4f906123ea565b8015610f9c5780601f10610f7157610100808354040283529160200191610f9c565b820191906000526020600020905b815481529060010190602001808311610f7f57829003601f168201915b505050505090506000610fba60408051602081019091526000815290565b90508051600003610fcc575092915050565b815115610ffe578082604051602001610fe69291906124d3565b60405160208183030381529060405292505050919050565b610a0384611802565b6104e5828260405180602001604052806000815250611876565b60008281526006602052604090206110398282612552565b506040518281527ff8e1a15aba9398e019f0b49df1a4fde98ee17ae345cb5f6b5e2c27f5033e8ce79060200160405180910390a15050565b60006001600160e01b031982166380ac58cd60e01b14806110a257506001600160e01b03198216635b5e139f60e01b145b8061041957506301ffc9a760e01b6001600160e01b0319831614610419565b80806110d557506001600160a01b03821615155b156111975760006110e5846109b0565b90506001600160a01b038316158015906111115750826001600160a01b0316816001600160a01b031614155b80156111245750611122818461091f565b155b1561114d5760405163a9fbf51f60e01b81526001600160a01b038416600482015260240161050f565b81156111955783856001600160a01b0316826001600160a01b03167f8c5be1e5ebec7d5bd14f71427d1e84f3dd0314c0f7b2291e5b200ac8c7c3b92560405160405180910390a45b505b5050600090815260046020526040902080546001600160a01b0319166001600160a01b0392909216919091179055565b6000806111d585858561188d565b9050610a0381866001611986565b6000816000036111f557506000919050565b60006001611202846119fc565b901c6001901b9050600181848161121b5761121b612612565b048201901c9050600181848161123357611233612612565b048201901c9050600181848161124b5761124b612612565b048201901c9050600181848161126357611263612612565b048201901c9050600181848161127b5761127b612612565b048201901c9050600181848161129357611293612612565b048201901c905060018184816112ab576112ab612612565b048201901c9050610c81818285816112c5576112c5612612565b04611a90565b60005b818310156113255760006112e28484611aa6565b60008781526020902090915065ffffffffffff86169082015465ffffffffffff1611156113115780925061131f565b61131c816001612466565b93505b506112ce565b509392505050565b6000610419826106a8565b816001600160a01b0316836001600160a01b03161415801561135a5750600081115b15610615576001600160a01b03831615611402576001600160a01b0383166000908152600c60205260408120819061139d90611ac161139886611acd565b611b01565b6001600160d01b031691506001600160d01b03169150846001600160a01b03167fdec2bacdd2f05b59de34da9b523dff8be42e5e38e818c82fdb0bae774387a72483836040516113f7929190918252602082015260400190565b60405180910390a250505b6001600160a01b03821615610615576001600160a01b0382166000908152600c60205260408120819061143b90611b3a61139886611acd565b6001600160d01b031691506001600160d01b03169150836001600160a01b03167fdec2bacdd2f05b59de34da9b523dff8be42e5e38e818c82fdb0bae774387a7248383604051611495929190918252602082015260400190565b60405180910390a25050505050565b606060ff83146114be576114b783611b46565b9050610419565b8180546114ca906123ea565b80601f01602080910402602001604051908101604052809291908181526020018280546114f6906123ea565b80156115435780601f1061151857610100808354040283529160200191611543565b820191906000526020600020905b81548152906001019060200180831161152657829003601f168201915b50505050509050610419565b6000306001600160a01b037f0000000000000000000000000000000000000000000000000000000000000000161480156115a857507f000000000000000000000000000000000000000000000000000000000000000046145b156115d257507f000000000000000000000000000000000000000000000000000000000000000090565b6107be604080517f8b73c3c69bb8fe3d512ecc4cf759cc79239f7b179b0ffacaa9a75d522b39400f60208201527f0000000000000000000000000000000000000000000000000000000000000000918101919091527f000000000000000000000000000000000000000000000000000000000000000060608201524660808201523060a082015260009060c00160405160208183030381529060405280519060200120905090565b600080807f7fffffffffffffffffffffffffffffff5d576e7357a4501ddfe92f46681b20a08411156116b5575060009150600390508261173f565b604080516000808252602082018084528a905260ff891692820192909252606081018790526080810186905260019060a0016020604051602081039080840390855afa158015611709573d6000803e3d6000fd5b5050604051601f1901519150506001600160a01b0381166117355750600092506001915082905061173f565b9250600091508190505b9450945094915050565b600082600381111561175d5761175d612628565b03611766575050565b600182600381111561177a5761177a612628565b036117985760405163f645eedf60e01b815260040160405180910390fd5b60028260038111156117ac576117ac612628565b036117cd5760405163fce698f760e01b81526004810182905260240161050f565b60038260038111156117e1576117e1612628565b036104e5576040516335e2f38360e21b81526004810182905260240161050f565b606061180d826109b0565b50600061182560408051602081019091526000815290565b905060008151116118455760405180602001604052806000815250610c81565b8061184f84611b85565b6040516020016118609291906124d3565b6040516020818303038152906040529392505050565b6118808383611c18565b6106156000848484610d27565b6000828152600260205260408120546001600160a01b03908116908316156118ba576118ba818486611c7d565b6001600160a01b038116156118f8576118d76000856000806110c1565b6001600160a01b038116600090815260036020526040902080546000190190555b6001600160a01b03851615611927576001600160a01b0385166000908152600360205260409020805460010190555b60008481526002602052604080822080546001600160a01b0319166001600160a01b0389811691821790925591518793918516917fddf252ad1be2c89b69c2b068fc378daa952ba7f163c4a11628f55a4df523b3ef91a4949350505050565b6001600160a01b0383166119a8576119a5600d611b3a61139884611acd565b50505b6001600160a01b0382166119ca576119c7600d611ac161139884611acd565b50505b6001600160a01b038381166000908152600b602052604080822054858416835291205461061592918216911683611338565b600080608083901c15611a1157608092831c92015b604083901c15611a2357604092831c92015b602083901c15611a3557602092831c92015b601083901c15611a4757601092831c92015b600883901c15611a5957600892831c92015b600483901c15611a6b57600492831c92015b600283901c15611a7d57600292831c92015b600183901c156104195760010192915050565b6000818310611a9f5781610c81565b5090919050565b6000611ab5600284841861263e565b610c8190848416612466565b6000610c818284612660565b60006001600160d01b03821115610a3e576040516306dfcc6560e41b815260d060048201526024810183905260440161050f565b600080611b2d611b0f6107b4565b611b25611b1b88610c4e565b868863ffffffff16565b879190611ce1565b915091505b935093915050565b6000610c818284612687565b60606000611b5383611cef565b604080516020808252818301909252919250600091906020820181803683375050509182525060208101929092525090565b60606000611b9283611d17565b600101905060008167ffffffffffffffff811115611bb257611bb26121ed565b6040519080825280601f01601f191660200182016040528015611bdc576020820181803683370190505b5090508181016020015b600019016f181899199a1a9b1b9c1cb0b131b232b360811b600a86061a8153600a8504945084611be657509392505050565b6001600160a01b038216611c4257604051633250574960e11b81526000600482015260240161050f565b6000611c50838360006109f6565b90506001600160a01b03811615610615576040516339e3563760e11b81526000600482015260240161050f565b611c88838383611def565b610615576001600160a01b038316611cb657604051637e27328960e01b81526004810182905260240161050f565b60405163177e802f60e01b81526001600160a01b03831660048201526024810182905260440161050f565b600080611b2d858585611e52565b600060ff8216601f81111561041957604051632cd44ac360e21b815260040160405180910390fd5b60008072184f03e93ff9f4daa797ed6e38ed64bf6a1f0160401b8310611d565772184f03e93ff9f4daa797ed6e38ed64bf6a1f0160401b830492506040015b6d04ee2d6d415b85acef81000000008310611d82576d04ee2d6d415b85acef8100000000830492506020015b662386f26fc100008310611da057662386f26fc10000830492506010015b6305f5e1008310611db8576305f5e100830492506008015b6127108310611dcc57612710830492506004015b60648310611dde576064830492506002015b600a83106104195760010192915050565b60006001600160a01b03831615801590610a035750826001600160a01b0316846001600160a01b03161480611e295750611e29848461091f565b80610a035750506000908152600460205260409020546001600160a01b03908116911614919050565b825460009081908015611f71576000611e7087610ac6600185612453565b60408051808201909152905465ffffffffffff808216808452600160301b9092046001600160d01b031660208401529192509087161015611ec457604051632520601d60e01b815260040160405180910390fd5b805165ffffffffffff808816911603611f105784611ee788610ac6600186612453565b80546001600160d01b0392909216600160301b0265ffffffffffff909216919091179055611f61565b6040805180820190915265ffffffffffff80881682526001600160d01b0380881660208085019182528b54600181018d5560008d81529190912094519151909216600160301b029216919091179101555b602001519250839150611b329050565b50506040805180820190915265ffffffffffff80851682526001600160d01b0380851660208085019182528854600181018a5560008a815291822095519251909316600160301b029190931617920191909155905081611b32565b6001600160e01b03198116811461098857600080fd5b600060208284031215611ff457600080fd5b8135610c8181611fcc565b60005b8381101561201a578181015183820152602001612002565b50506000910152565b6000815180845261203b816020860160208601611fff565b601f01601f19169290920160200192915050565b602081526000610c816020830184612023565b60006020828403121561207457600080fd5b5035919050565b80356001600160a01b038116811461209257600080fd5b919050565b600080604083850312156120aa57600080fd5b6120b38361207b565b946020939093013593505050565b6000806000606084860312156120d657600080fd5b6120df8461207b565b92506120ed6020850161207b565b9150604084013590509250925092565b60006020828403121561210f57600080fd5b610c818261207b565b60ff60f81b881681526000602060e0602084015261213960e084018a612023565b838103604085015261214b818a612023565b606085018990526001600160a01b038816608086015260a0850187905284810360c08601528551808252602080880193509091019060005b8181101561219f57835183529284019291840191600101612183565b50909c9b505050505050505050505050565b600080604083850312156121c457600080fd5b6121cd8361207b565b9150602083013580151581146121e257600080fd5b809150509250929050565b634e487b7160e01b600052604160045260246000fd5b600067ffffffffffffffff8084111561221e5761221e6121ed565b604051601f8501601f19908116603f01168101908282118183101715612246576122466121ed565b8160405280935085815286868601111561225f57600080fd5b858560208301376000602087830101525050509392505050565b6000806000806080858703121561228f57600080fd5b6122988561207b565b93506122a66020860161207b565b925060408501359150606085013567ffffffffffffffff8111156122c957600080fd5b8501601f810187136122da57600080fd5b6122e987823560208401612203565b91505092959194509250565b60008060008060008060c0878903121561230e57600080fd5b6123178761207b565b95506020870135945060408701359350606087013560ff8116811461233b57600080fd5b9598949750929560808101359460a0909101359350915050565b6000806040838503121561236857600080fd5b6123718361207b565b9150602083013567ffffffffffffffff81111561238d57600080fd5b8301601f8101851361239e57600080fd5b6123ad85823560208401612203565b9150509250929050565b600080604083850312156123ca57600080fd5b6123d38361207b565b91506123e16020840161207b565b90509250929050565b600181811c908216806123fe57607f821691505b60208210810361241e57634e487b7160e01b600052602260045260246000fd5b50919050565b634e487b7160e01b600052601160045260246000fd5b60006001820161244c5761244c612424565b5060010190565b8181038181111561041957610419612424565b8082018082111561041957610419612424565b6001600160a01b03858116825284166020820152604081018390526080606082018190526000906124ac90830184612023565b9695505050505050565b6000602082840312156124c857600080fd5b8151610c8181611fcc565b600083516124e5818460208801611fff565b8351908301906124f9818360208801611fff565b01949350505050565b601f821115610615576000816000526020600020601f850160051c8101602086101561252b5750805b601f850160051c820191505b8181101561254a57828155600101612537565b505050505050565b815167ffffffffffffffff81111561256c5761256c6121ed565b6125808161257a84546123ea565b84612502565b602080601f8311600181146125b5576000841561259d5750858301515b600019600386901b1c1916600185901b17855561254a565b600085815260208120601f198616915b828110156125e4578886015182559484019460019091019084016125c5565b50858210156126025787850151600019600388901b60f8161c191681555b5050505050600190811b01905550565b634e487b7160e01b600052601260045260246000fd5b634e487b7160e01b600052602160045260246000fd5b60008261265b57634e487b7160e01b600052601260045260246000fd5b500490565b6001600160d01b0382811682821603908082111561268057612680612424565b5092915050565b6001600160d01b038181168382160190808211156126805761268061242456fea2646970667358221220d050986ca4ce088ae1df3dea7b79952c6a8c10cbfede35ee19c2d63d72ae10fa64736f6c63430008190033",
    "linkReferences": {}
  },
  "methodIdentifiers": {
    "CLOCK_MODE()": "4bf5d7e9",
    "approve(address,uint256)": "095ea7b3",
    "balanceOf(address)": "70a08231",
    "clock()": "91ddadf4",
    "delegate(address)": "5c19a95c",
    "delegateBySig(address,uint256,uint256,uint8,bytes32,bytes32)": "c3cda520",
    "delegates(address)": "587cde1e",
    "eip712Domain()": "84b0196e",
    "getApproved(uint256)": "081812fc",
    "getPastTotalSupply(uint256)": "8e539e8c",
    "getPastVotes(address,uint256)": "3a46b1a8",
    "getVotes(address)": "9ab24eb0",
    "isApprovedForAll(address,address)": "e985e9c5",
    "name()": "06fdde03",
    "nonces(address)": "7ecebe00",
    "owner()": "8da5cb5b",
    "ownerOf(uint256)": "6352211e",
    "renounceOwnership()": "715018a6",
    "safeMint(address,string)": "d204c45e",
    "safeTransferFrom(address,address,uint256)": "42842e0e",
    "safeTransferFrom(address,address,uint256,bytes)": "b88d4fde",
    "setApprovalForAll(address,bool)": "a22cb465",
    "supportsInterface(bytes4)": "01ffc9a7",
    "symbol()": "95d89b41",
    "tokenURI(uint256)": "c87b56dd",
    "transferFrom(address,address,uint256)": "23b872dd",
    "transferOwnership(address)": "f2fde38b"
  },
  "id": 63
}